{
  "_format": "hh-sol-artifact-1",
  "contractName": "TestContract",
  "sourceName": "contracts/TestContract.sol",
  "abi": [
    {
      "inputs": [],
      "stateMutability": "nonpayable",
      "type": "constructor"
    },
    {
      "inputs": [
        {
          "internalType": "string",
          "name": "key",
          "type": "string"
        },
        {
          "internalType": "string",
          "name": "value",
          "type": "string"
        }
      ],
      "name": "addData",
      "outputs": [],
      "stateMutability": "nonpayable",
      "type": "function"
    },
    {
      "inputs": [
        {
          "internalType": "string",
          "name": "key",
          "type": "string"
        }
      ],
      "name": "getData",
      "outputs": [
        {
          "internalType": "string",
          "name": "",
          "type": "string"
        }
      ],
      "stateMutability": "view",
      "type": "function"
    },
    {
      "inputs": [],
      "name": "owner",
      "outputs": [
        {
          "internalType": "address",
          "name": "",
          "type": "address"
        }
      ],
      "stateMutability": "view",
      "type": "function"
    },
    {
      "inputs": [
        {
          "internalType": "string",
          "name": "",
          "type": "string"
        }
      ],
      "name": "someData",
      "outputs": [
        {
          "internalType": "string",
          "name": "",
          "type": "string"
        }
      ],
      "stateMutability": "view",
      "type": "function"
    }
  ],
  "bytecode": "0x608060405234801561001057600080fd5b50336000806101000a81548173ffffffffffffffffffffffffffffffffffffffff021916908373ffffffffffffffffffffffffffffffffffffffff1602179055506108b2806100606000396000f3fe608060405234801561001057600080fd5b506004361061004c5760003560e01c80634dc7361b14610051578063528407e5146100815780638da5cb5b1461009d578063ae55c888146100bb575b600080fd5b61006b600480360381019061006691906104d3565b6100eb565b604051610078919061064e565b60405180910390f35b61009b60048036038101906100969190610514565b6101a1565b005b6100a5610266565b6040516100b29190610633565b60405180910390f35b6100d560048036038101906100d091906104d3565b61028a565b6040516100e2919061064e565b60405180910390f35b600181805160208101820180518482526020830160208501208183528095505050505050600091509050805461012090610781565b80601f016020809104026020016040519081016040528092919081815260200182805461014c90610781565b80156101995780601f1061016e57610100808354040283529160200191610199565b820191906000526020600020905b81548152906001019060200180831161017c57829003601f168201915b505050505081565b60008054906101000a900473ffffffffffffffffffffffffffffffffffffffff1673ffffffffffffffffffffffffffffffffffffffff163373ffffffffffffffffffffffffffffffffffffffff161461022f576040517f08c379a000000000000000000000000000000000000000000000000000000000815260040161022690610670565b60405180910390fd5b80600183604051610240919061061c565b908152602001604051809103902090805190602001906102619291906103c8565b505050565b60008054906101000a900473ffffffffffffffffffffffffffffffffffffffff1681565b606060008054906101000a900473ffffffffffffffffffffffffffffffffffffffff1673ffffffffffffffffffffffffffffffffffffffff163373ffffffffffffffffffffffffffffffffffffffff161461031a576040517f08c379a000000000000000000000000000000000000000000000000000000000815260040161031190610670565b60405180910390fd5b60018260405161032a919061061c565b9081526020016040518091039020805461034390610781565b80601f016020809104026020016040519081016040528092919081815260200182805461036f90610781565b80156103bc5780601f10610391576101008083540402835291602001916103bc565b820191906000526020600020905b81548152906001019060200180831161039f57829003601f168201915b50505050509050919050565b8280546103d490610781565b90600052602060002090601f0160209004810192826103f6576000855561043d565b82601f1061040f57805160ff191683800117855561043d565b8280016001018555821561043d579182015b8281111561043c578251825591602001919060010190610421565b5b50905061044a919061044e565b5090565b5b8082111561046757600081600090555060010161044f565b5090565b600061047e610479846106b5565b610690565b90508281526020810184848401111561049657600080fd5b6104a184828561073f565b509392505050565b600082601f8301126104ba57600080fd5b81356104ca84826020860161046b565b91505092915050565b6000602082840312156104e557600080fd5b600082013567ffffffffffffffff8111156104ff57600080fd5b61050b848285016104a9565b91505092915050565b6000806040838503121561052757600080fd5b600083013567ffffffffffffffff81111561054157600080fd5b61054d858286016104a9565b925050602083013567ffffffffffffffff81111561056a57600080fd5b610576858286016104a9565b9150509250929050565b6105898161070d565b82525050565b600061059a826106e6565b6105a481856106f1565b93506105b481856020860161074e565b6105bd81610842565b840191505092915050565b60006105d3826106e6565b6105dd8185610702565b93506105ed81856020860161074e565b80840191505092915050565b6000610606600e836106f1565b915061061182610853565b602082019050919050565b600061062882846105c8565b915081905092915050565b60006020820190506106486000830184610580565b92915050565b60006020820190508181036000830152610668818461058f565b905092915050565b60006020820190508181036000830152610689816105f9565b9050919050565b600061069a6106ab565b90506106a682826107b3565b919050565b6000604051905090565b600067ffffffffffffffff8211156106d0576106cf610813565b5b6106d982610842565b9050602081019050919050565b600081519050919050565b600082825260208201905092915050565b600081905092915050565b60006107188261071f565b9050919050565b600073ffffffffffffffffffffffffffffffffffffffff82169050919050565b82818337600083830152505050565b60005b8381101561076c578082015181840152602081019050610751565b8381111561077b576000848401525b50505050565b6000600282049050600182168061079957607f821691505b602082108114156107ad576107ac6107e4565b5b50919050565b6107bc82610842565b810181811067ffffffffffffffff821117156107db576107da610813565b5b80604052505050565b7f4e487b7100000000000000000000000000000000000000000000000000000000600052602260045260246000fd5b7f4e487b7100000000000000000000000000000000000000000000000000000000600052604160045260246000fd5b6000601f19601f8301169050919050565b7f4e4f5420415554484f52495a454400000000000000000000000000000000000060008201525056fea2646970667358221220a21f677e4f5c972f21a94385bf46ba43f2802a9338a65b632e964d3feae6cc0464736f6c63430008040033",
  "linkReferences": {},
  "deployedLinkReferences": {}
}